:020000041000EA
:1000000000010208EB0200100D0000004D0300107B
:1000100000000000000000000000000000000000E0
:100020000000000000000000000000004903001074
:100030000000000000000000490300104903001008
:100040004903001049030010490300104903001040
:100050004903001049030010490300104903001030
:100060004903001049030010490300104903001020
:100070004903001049030010490300104903001010
:1000800010B5064C2378002B07D1054B002B02D06E
:10009000044800E000BF0123237010BD34080008AD
:1000A00000000000F4C80010044B10B5002B03D072
:1000B0000349044800E000BF10BDC0460000000036
:1000C00038080008F4C8001010B50021012005F020
:1000D00037FD4D220021012005F070FC0021012098
:1000E00005F0ECFC0021002005F02AFD0022002193
:1000F000002005F063FC0021002005F0DFFC10BDAE
:1001000010B5002200212F2005F09EFC00220121C5
:10011000052005F099FC10BD10B5134C134A0021C1
:10012000200003F035FA124A0121200003F030FAD2
:10013000104C114A0021200003F02AFA0F4A012135
:10014000200003F025FA0E4C0E4A0421200003F093
:100150001FFA0D4A0621200003F01AFA0B4A072164
:10016000200003F015FA10BD00003140D4B4001097
:1001700008B50010800231403CB5001070B5001089
:1001800000033140A0B400106CB4001038B400106B
:1001900010B5846803681B89E4180C4B1B68D86889
:1001A00022000B4906F066FBFA20400006F020F81A
:1001B000084B01221A70084B1C60BFF34F8F074B8E
:1001C000074ADA60BFF34F8FC046FDE7CC02000854
:1001D00000B70010FF000008F800000800ED00E084
:1001E0000400FA0510B584B0FFF76EFFFFF788FF33
:1001F000FFF792FF62B6E120400201F00DFF2048B8
:1002000007F004FB1F4807F001FB1F4A1F49204865
:1002100007F070FA1F4807F0F9FA012001F0D0FC4E
:10022000041E0CD11C4B1B68DB682E2201211B48CD
:1002300006F094FB002C0AD0002004B010BD164B31
:100240001B68D8682200164906F014FBF2E701A8E3
:1002500000F0C2FE002808D00F4B1B68DB6832227A
:100260000121104806F07AFBE6E70B4B1B68DB68C0
:100270002F2201210C4806F071FB01A8FFF788FF2F
:1002800040B7001078B7001094B70010A0B7001066
:10029000ACB70010D8B70010CC02000810B800109E
:1002A00040B80010B4B8001084B8001010B505F0C4
:1002B000C3FF102803D0094B00221A7010BD074B52
:1002C0001B78012BFAD1064B1B68064A9342F5D9DD
:1002D0001A685B6882F308889847FEE7FF00000809
:1002E000F8000008FF7F01107047FFF7DFFF72B6CC
:1002F0000F4C104DAC4209DA21686268A368043BD8
:1003000002DBC858D050FAE70C34F3E70A490B4A2D
:100310000020521A02DD043A8850FCDC08480949E2
:100320000860BFF34F8F00F073F8FFF75BFFFEE745
:1003300000C9001018C9001034080008CCFC0008DF
:100340000001000808ED00E0FEE7FEE700B504202C
:100350007146084202D0EFF3098001E0EFF3088014
:10036000043005F08BFFFEE70230800803D0013037
:100370000238FCD1C046C0467047EFF3108072B619
:10038000704780F31088704710B5002003F048FBD9
:1003900010BD704710B5002005F04CFE041E00D1C2
:1003A00010BD144B186005F00BFC411C200005F03B
:1003B0008FFF0400104B186005F0F6FB411C200075
:1003C00005F086FF04000D4B1860013C0C4920002D
:1003D00005F07EFF01300B4B1870FA2189002000D8
:1003E00005F076FF0130084B1860C003074B18601A
:1003F000D6E7C046B8010008BC010008B4010008F7
:1004000040420F00C8010008C4010008C0010008F4
:1004100010B5234801F01EFE224CB022D200A35892
:100420005B005B08A350E0218900635830208343C0
:10043000635080235B04A3501B4B1C4AE2500433DF
:10044000A0229201E2501A4BFF22E25005F02EFF4B
:10045000C0225200A35801218B43A350FFF799FFFC
:10046000FFF798FF134B1B68BA20195ACA00521A9B
:10047000196A8C4662440021D1601A6A185AC30076
:100480001B1AD31859600C4A8031032003F018FB63
:100490000A4803F079F90A4803F0D0F910BDC046C4
:1004A00010C000100000264084050000010002007A
:1004B0008C050000B8FC0008E007000850080008A0
:1004C000E8B80010034A90235B01D358032018407A
:1004D0007047C04600002040012800D1704702202C
:1004E000FCE7000010B51022044906F051FA00287C
:1004F00001D0022010BD0120FCE7C0461CBA00104C
:1005000010B506F045FA10BD04280AD0052804D11C
:1005100001390800411E884104E0401A4342584115
:1005200000E00120704780682838704770B50D00E2
:10053000140000290FD0002A01D1002070BD00F066
:10054000E3FF0023A34204D2EA5C824205D10133D7
:10055000F8E70120F2E70020F0E70020EEE770B5B1
:1005600086B004000D0081681039102302AA00F043
:10057000BBFE002861DB102202A92000FFF7D6FF96
:1005800000284AD003232B702000FFF7CCFF010086
:1005900001236A460732200000F0A6FE00284FDB48
:1005A0006B46D91D0B780F221A406A701B092B71FC
:1005B00001222000FFF7BAFF002802D16B78042B3C
:1005C00003D901236B7000232B71A1682039AE1C65
:1005D00001233200200000F087FE002832DB0122D8
:1005E00031002000FFF7A2FF00281BD00323AB70CF
:1005F000A1681839EE1C01233200200000F074FEBF
:10060000002821DB012231002000FFF78FFF0028A6
:100610000DD00323EB70002010E002A8FFF762FF6B
:100620002870B1E7A878FFF757FFA870E0E7E878EF
:10063000FFF752FFE870002000E0012006B070BD17
:100640000120FBE70120F9E70120F7E710B582B0B0
:100650000C00C0B201A900F031FE002803D0012433
:10066000200002B010BD21000198FFF778FF0400C0
:10067000019800F037FEF3E730B589B006A90120F4
:10068000FFF7E4FF002800D08CE004A90230FFF758
:10069000DDFF0400444B1B68D86806AB1B78012BB8
:1006A00028D0032B24D0414B06AA51789578D278D4
:1006B0000292019500913E4A3E4906F0DBF83A4B22
:1006C0001B68D86804AB1B78012B17D0032B13D001
:1006D000364B04AA51789578D27802920195009110
:1006E000354A344906F0C6F8002C11D0FF2057E0F7
:1006F000324BD9E7324BD7E7304BEAE7304BE8E7EC
:100700002B79042B28D006AA9278934224D0013466
:10071000022C3CD863001B195B002A4AD51806A995
:100720000978D05CFFF7F0FE0028F0D004AB197810
:100730006878FFF7E9FE0028E9D0AB78042B03D0F6
:1007400006AAD2789342E2D1EB78042BD8D004AA3F
:10075000D2789342DBD1D3E7134B1B68D8686B790F
:10076000022B07D0032B10D0042B01D0164A02E035
:10077000164A00E0164A174906F07CF86879831E8D
:10078000DBB2022B0CD9FF200AE0134AF3E7064B39
:100790001B68DB6817220121104806F0DFF80120F2
:1007A00009B030BDFF20FBE7CC0200081CB90010E7
:1007B0005CB9001080B90010C4B9001028B900104D
:1007C00020B900102CBA001040B9001054B9001024
:1007D00030B90010ECB9001038B9001004BA00109C
:1007E000F0B5CE46474680B5A7B0140099462E9F77
:1007F0002F9B9846684601F06BFB0021684601F08C
:100800006CFB319B002B02D0329B002B07DC238931
:10081000E268944663446689F618002513E01A00DE
:100820003199684601F067FBF1E723003A0029009F
:10083000484600F059FD002811D1220039006846D1
:1008400001F059FB2D19B54204D2741B4445ECD973
:100850004446EAE73099684601F059FB002027B08A
:10086000C0BCB946B046F0BDF0B59FB017001D0042
:100870002C4B1E68279B0493269B039306AB029385
:10088000259B0193249B00932B00FFF7A9FF041ED7
:100890003DD1289B002B04D0202206A9180006F089
:1008A00085F800230093204B2A00390016A800F099
:1008B00031FC041E2BD11CAB72226A441DA916A860
:1008C00000F09EFC002821DB1CDC1CAA1288102AE8
:1008D000F1D172236B441B88202B20D10EAA1D99C5
:1008E000280000F001FD071E17D120220EA906A83E
:1008F000FFF706FE06000D4B1B6801248342DAD089
:100900003C0004E060424441E4B200E00400002CFA
:1009100000D1340020001FB0F0BD0400F7E701242F
:100920006442F7E7CC010008FFFF0000D00900088F
:1009300010B50B4B02689A420FD1C2680389D843A5
:10094000824202D8D418012000E00020002805D0FF
:100950008B68A34202D8002000E0002010BDC046F2
:100960003DB8F39610B5006A00F0AEFD10BDF0B5CD
:1009700083B004000F00002000F0B6FDC0B201A952
:1009800000F09CFC061E1AD1019800F0BDFD050088
:10099000019800F0A7FC2C21794361180023032B58
:1009A00005D8CA5C954208D10133DBB2F7E70123D1
:1009B000002B07D0300003B0F0BD0023F8E701267C
:1009C0007642F7E701267642F4E710B582B00400DC
:1009D0000800EC2212010192012904D002290DD154
:1009E000226D543401E0626A283401A900F0A6FDAA
:1009F000002801D1019B236002B010BD0120FBE75C
:100A000070B504000121FFF7E0FF002802D00125A6
:100A1000280070BD02212000FFF7D7FF051E01D07E
:100A20000125F5E72000FFF79DFFE065F0E70000F6
:100A300000B587B0130000220492039202920132A3
:100A4000FF320192044A00920A0000210020FFF7C1
:100A50000BFF07B000BDC04634FA0008F0B585B002
:100A600005000C000192244B1F68002000F03CFDA3
:100A7000C0B203A900F022FC002802D0380005B063
:100A8000F0BD2C3060432E1821002800FFF76FFFC7
:100A900000282BD03369D90601D5012727E0019B17
:100AA000039A31002800FFF7C3FF0700039D2900C8
:100AB0003000FFF73DFF002803D0104B1B68BB42FE
:100AC00015D0002C0AD10E4B1B68D868002C0BD116
:100AD0000C4A0D4905F0CEFE012708E0AA68002166
:100AE000280000F097FCEEE7084AF2E70127039898
:100AF00000F0F8FBC2E7C046CC010008D0090008AE
:100B0000CC0200084CBA001054BA001040BA0010D1
:100B100070B505000E000020FFF7AEFD04000228AE
:100B200005D0042803D0032801D0200070BD320076
:100B300001212800FFF792FF044B1B688342F4D089
:100B4000012801D00524F0E70400EEE7D0090008F1
:100B5000F8B506000D0017000024012C11DC2C2232
:100B60006243B2183B002100300000F03DFA00283B
:100B700001D10134F1E7002C04DD002D02D1002069
:100B800000E00020F8BD002383718360C36001335F
:100B9000437103600371C37170474379012B01D026
:100BA000002070470368012B01D00020F9E703798A
:100BB000012B01D00020F4E70120F2E770B504001A
:100BC0000D00FFF71DFF00280FD10022002120009B
:100BD000FFF7BEFF002814D1200000F023FA002800
:100BE0001AD158230122E2540AE0204B1B68D8682E
:100BF000EC2212011E4905F03DFE58230122E25469
:100C000070BD1A4B1B68D86800221A4905F032FEE5
:100C100058230122E254F3E72800FFF7B4FF28002D
:100C2000FFF7BBFF00280FD0EB79012B12D02A0071
:100C300001212000FFF712FF0F4B1B68834210D0E9
:100C400058230522E254DBE70C4B0D4A0D490E48B0
:100C500005F0F2FD29002000FFF75AFF5823E05469
:100C6000CEE7EA795823E254CAE7C046CC0200082E
:100C700080BA0010C8BA0010D0090008F8BA0010F5
:100C800040BC00104D060000FCBA001010B500F08A
:100C9000C1FB10BDF8B5DE4657464E464546E0B5A9
:100CA0008946924698460A9B9B460B9E002512E079
:100CB0004346E9182300124A484600F015FB002875
:100CC00019D15B46E91823000D4A504600F04CFB51
:100CD000002812D12D19B54206D2741B8023DB00E7
:100CE0009C42E5D91C00E3E70020F0BCBB46B246BD
:100CF000A946A046F8BD0120F7E70120F5E7C04668
:100D0000340A0008F0B5C64600B584B00700414C6F
:100D10002368DB68342201213F4805F01FFE236869
:100D2000DB68202201213D4805F018FE03A90120BF
:100D300000F0C4FA00281AD102A9022000F0BEFA7D
:100D400000281AD1BB6A984600250024444521D2C8
:100D5000E3007A6A944663445E683200290003988F
:100D6000FFF794FF00280ED1AD190134EEE72C4BAC
:100D70002C4A2D492D4805F05FFD294B294A2C4965
:100D80002A4805F059FDEB21254B264A89002748C2
:100D900005F052FD1F4B1B68D8682A00254905F055
:100DA00069FD019500230093039A02993800FFF72B
:100DB00071FF041E04D0200004B080BCB846F0BD12
:100DC0003B6D5A6800210298FFF760FF002814D19C
:100DD0007B6D013B3A6DDB00D31811681A68511A1C
:100DE0005A680298FFF752FF041E0CD1039800F0D6
:100DF00079FA029800F076FADDE7094B094A0E49C4
:100E00000A4805F019FD064B064A0C49074805F04B
:100E100013FDC046CC0200083CBB001074BB0010A0
:100E200098BB00101CBC0010A2030000FCBA00100C
:100E3000A6030000A0BB0010FB0300000304000099
:100E400010B5FFF75FFF002800D110BD024B034A29
:100E50000349044805F0F0FC98BB00102CBC0010BE
:100E600053050000FCBA0010F0B5C64600B584B0CA
:100E700004000E00494B1B6898466022002105F0D3
:100E80009EFD474B6362474B236501277F42002548
:100E9000012D14D82900002000F026FB2C216943E5
:100EA00020316118C0B200F009FA071E01D10135E6
:100EB000EEE73D4B3D4A3E493E4805F0BDFC6946E4
:100EC0002000FFF77BFE5823E35C6A46D371042BB6
:100ED00007D8022B1CD2012B05D05823FF22E25445
:100EE00001E0052BF9D15823E35CFF2B1CD0012B2B
:100EF00028D1314B22689A422CD0304B1B68D868DD
:100F0000002322002E4905F0B5FC032700253AE016
:100F100069462000FFF794FF071EE4D0224B234AC6
:100F20002849244805F088FC244B1B68DB680E2206
:100F30000121254805F012FD244B1C4A24491D4877
:100F400005F07AFC6A4600212000FFF701FE071E2B
:100F5000CFD0DBE710220021684605F030FD236A80
:100F60005B783371236A5B68B3603460194B1B682C
:100F70009846CBE70122521B2C235343E318186AEF
:100F800000F0B0F90135012DF4D9002F00D147460A
:100F9000380004B080BCB846F0BDC046CC010008A3
:100FA000340E00083484000898BB001060BC0010A8
:100FB000D4060000FCBA00103DB8F396CC0200083D
:100FC000F4BB001014070000E4BB0010F8BA0010D6
:100FD0002B070000D009000810B501000148FFF7F9
:100FE00043FF10BDD409000810B582B014000020E2
:100FF00000F07AFAC0B201A900F060F9002806D02A
:101000000124019800F06EF9200002B010BD2023E9
:1010100022000021019800F067F9041EF1D001249C
:10102000EFE70000F8B5CE46474680B5836A99469B
:10103000436D9C46EC231B01994507D89C4505D878
:10104000002600240023002100221AE02D4B1B68FB
:10105000DB68312201212C4805F080FC0020C0BC57
:10106000B946B046F8BDDD00476AB84645446D68EC
:101070005219E500076DB84645446D6849190133BA
:1010800001344B4501D364452CD28A42EBD014D2B3
:10109000DD00476AB84645446D685219022E02D0F9
:1010A00001330126EDE7174B1B68DB68392201216C
:1010B000164805F053FC0020D1E7E500076DB8465F
:1010C00045446D684919012E02D001340226D8E743
:1010D0000C4B1B68DB68392201210C4805F03EFCF3
:1010E0000020BCE74B4501D1644509D0054B1B6886
:1010F000DB6830220121064805F030FC0020AEE715
:101100000120ACE7CC02000870BC0010A4BC0010A9
:10111000E0BC0010F0B5D6464F464646C0B582B09A
:1011200004000D00170099460AAA13789A46002871
:1011300045D0002947D0002F49D00E89CB689C4666
:101140006644042301AA3100380000F0CDF880463F
:10115000002840D101AB1A88274B9A421FD06B89D7
:10116000002B40D101AB1A88244B9A423FD1256015
:1011700067604B4623815346A3726B899B19E360DA
:101180006B899B1901AA52889B18636104362661FA
:10119000404602B0E0BCBA46B146A846F0BD6B89F5
:1011A00001AA51888B421AD189190423380000F012
:1011B0009BF80028D6D001235B429846E8E701233C
:1011C0005B429846E4E701235B429846E0E701234F
:1011D0005B429846DCE701235B429846D8E701234F
:1011E0005B429846D4E701235B429846D0E701234F
:1011F0005B429846CCE7C0460869000007690000DA
:10120000F0B583B004000F0016001D00002848D080
:101210000368002B48D04368002B20D101204042B6
:101220003BE0042301AA2169606800F05DF8002812
:101230003DD1A37A002B03D02369E268934239D2CF
:1012400023891D4A934218D001AA1288934214D0D0
:1012500001AB5B88226994466344043323612369AC
:10126000626993421BD222685289002AD9D0E2686F
:101270009A42D6D104332361D3E7002D02D001ABCB
:101280001B882B80236904333B6001AB5B88338070
:101290002269944663440433236103B0F0BD012006
:1012A000FBE701204042F8E701204042F5E701203A
:1012B0004042F2E70120F0E7FFFF000010B50022F6
:1012C0009300074C1B59002B07D01C78844201D097
:1012D0000132F5E70B60002001E00120404210BD23
:1012E000800100087047000070B5150044688C420A
:1012F00014D9CA18944218D9611842787F2A1BD091
:1013000052B2002A1EDB01246442114B1B68D868CC
:101310002200104905F0AEFA200070BD20210E4BCE
:101320000E4AFF310E4805F087FA90210D4B0B4A0B
:1013300049000B4805F080FA1A00280005F036FB3A
:101340000024E9E72A0000F045F9041EE4D0DCE7B8
:10135000CC02000890BD001014BD00108CBE00101F
:1013600028BD001078BD0010F8B5150044688C4207
:101370000CD9CA18944210D9641842787F2A13D025
:1013800052B2002A34DB01204042F8BDA3211B4B9E
:101390001B4A49001B4805F04FFA48211A4B184ACE
:1013A000FF31184805F048FADA0506D1E205D00DFC
:1013B000002A09D15F0A060017E0A921134B104A41
:1013C0004900104805F038FA5421114B0C4AFF31FE
:1013D0000C4805F031FA2900200001F0FDFF8023C0
:1013E0009B009C46644465440136BE42F3D3CCE77F
:1013F0002A00210000F016F9C7E7C04614BD00100E
:101400009CBE001028BD001078BD0010B8BD0010B3
:10141000D8BD001070B58368934211D38B4216D9A2
:10142000541845685B199C4218D26D1854194378BA
:101430007F2B1AD05BB2002B34DB0120404270BD01
:10144000BC211B4B1B4A49001B4805F0F5F97A21CA
:101450001A4B184AFF31184805F0EEF9BD21184B18
:10146000144A4900144805F0E7F96D0A6D02640A50
:101470006402A54212D0641B640A0020002CDED056
:10148000013C6002401901F06DFF0028F6D0942164
:101490000C4B084AFF31084805F0CEF9280001F04E
:1014A00061FFCCE71100280000F0E4F8C7E7C04670
:1014B00004BE0010B0BE001028BD001018BE001001
:1014C0002CBE001054BE001010B543787F2B08D0FE
:1014D0005BB2002B02DB0120404210BD00F0A8FBF4
:1014E000FBE780208000F8E7012908D0022908D016
:1014F000002902D00120404270470120FCE7022071
:10150000FAE70320F8E7000010B543787F2B0BD0F3
:101510005BB2002B02DAFF20C0B210BD034B044ABD
:101520000449054805F088F90020F5E770BE001071
:10153000C4BE00101F02000028BD0010F8B50E0048
:101540001500002293001E495B58002B04D0197827
:10155000814220D00132F5E71C00002B29D06378AE
:101560007F2B1AD05BB2002B26DA8027FF02A368FC
:10157000D8190138390004F0ABFE336883420FD329
:1015800062680024844211D2E300EB185F601A60A5
:10159000D2190134F6E71C00DFE78027BF00E6E739
:1015A000084B094A09490A4805F046F9306000200D
:1015B000F8BD01204042FBE701204042F8E7C04669
:1015C0008001000878BE0010DCBE0010720200002E
:1015D00028BD0010F0B5C64600B582B00E00170059
:1015E0001C0043787F20184000F0C4FA0500E8236F
:1015F0001B069C46664400F0C5FA804600F0C6FA19
:10160000019000943B0032002900404603F0F6FFB1
:10161000002804D1002002B080BCB846F0BD0120F3
:101620004042F8E7F0B5C64600B582B00E0017009C
:101630001C0043787F20184000F09CFA0500E82346
:101640001B069C46664400F09DFA804600F09EFA18
:10165000019000943B0032002900404604F048F815
:10166000002804D1002002B080BCB846F0BD0120A3
:101670004042F8E7F0B583B00500002000F07AFAA8
:101680000400E8231B06E818A3699D696D42054024
:1016900000F078FA0600A3699F6900F077FA0090DD
:1016A0003B002A002100300004F0C0F8002802D1DD
:1016B000002003B0F0BD01204042FAE7F8B5CB4A64
:1016C000CB4BD358DA070FD49A0700D5EBE05A0773
:1016D00000D4B0E1C74B05229A61C44AF823DB006D
:1016E0000421D150D358DDE0C24B98681B68BF4934
:1016F00084228A580F210A400739891A0200884239
:1017000026D90A0024E0597809021C782143DC78A4
:1017100024069D782D042C432143B44E9825715105
:10172000597909021C792143DC7924069F793F0409
:101730003C43214371519B18801AAC4984228A583A
:101740000F210A400739891A0200884200D90A008D
:10175000002A00D18BE0082AD5D0012A25D0022A00
:1017600028D0032A2ED0042A37D0052A43D0062AAF
:1017700052D0072A64D05A78120219780A43D978CD
:1017800009069C78240421430A43984E98257251F7
:101790005A79120219790A43D97909069C792404E5
:1017A00021430A4372510822C5E71D788F4C9021CE
:1017B0006550C0E7597809021C7821438B4D942469
:1017C0002951B8E7597809021C782143874C9425A0
:1017D00061519D7890216550ADE7597809021C78D8
:1017E0002143DC7824069D782D042C4321437F4D32
:1017F000982429519FE7597809021C782143DC7805
:1018000024069D782D042C432143784C9825615162
:101810001D79902165508EE7597809021C78214383
:10182000DC7824069D782D042C4321436F4C9825A9
:101830006151597909021D792943942561517AE74B
:10184000597809021C782143DC7824069D782D0400
:101850002C432143654C98256151597909021D7922
:101860002943942561519D799021655063E7614A30
:101870001360906000280FD15C48F921C9004358DB
:101880000122934343505B4B9A61DB69002B03D0E9
:10189000584BDB6901209847544AF823DB000121AB
:1018A000D150D358F8BD534B5C69DB684F49C42213
:1018B0008A580F21114022008C421ED90A001CE0D8
:1018C0004A4DD820295819700E0A5E700E0C9E7071
:1018D000090ED97029581971080A5871080C9871A5
:1018E000090ED9719B18A41A4049C4228A580F21A5
:1018F000114022008C4200D90A00002A7CD0082A1C
:10190000DED0012A1FD0022A22D0032A27D0042A9F
:101910002FD0052A38D0062A44D0072A52D033487F
:10192000D82142581A70150A5D70150C9D70120E60
:10193000DA7042581A71110A5971110C9971120E0C
:10194000DA710822CEE72948D02141581970C9E739
:101950002648D42141581970090A5970C2E7234812
:10196000D42141581970090A5970D02141589970F1
:10197000B8E71E48D82141581970080A5870080C59
:101980009870090ED970ADE71848D82141581970E0
:101990000D0A5D700D0C9D70090ED970D021415853
:1019A00019719FE71148D821415819700D0A5D70CF
:1019B0000D0C9D70090ED970D42141581971090A76
:1019C00059718FE70948D821415819700D0A5D7087
:1019D0000D0C9D70090ED970D42141581971090A56
:1019E0005971D021415899717CE7C04600004240AE
:1019F000CC07000034FB0008214AD3605461002C5E
:101A000010D12049F922D2008B58022083438B50F9
:101A10001B4B03229A611B6A002B03D0184B1B6AD5
:101A200001309847164B5C61164AF823DB0002210F
:101A3000D150D35836E71A0709D5114B06229A61BF
:101A4000104AF823DB000821D150D3582AE7DA06E0
:101A500009D50B4B07229A610A4AF823DB001021B3
:101A6000D150D3581EE79B0600D41BE7044B082235
:101A70009A61044AF823DB002021D150D35811E7A2
:101A800034FB00080000424010B52E4C2E4A0321C2
:101A9000200001F07DFD11220321200001F0DCFC7B
:101AA0002A4A0421200001F073FD112204212000A4
:101AB00001F0D2FC264A0521200001F069FD112227
:101AC0000521200001F0C8FC224A0621200001F077
:101AD0005FFD11220621200001F0BEFC1E4A0721F5
:101AE000200001F055FD11220721200001F0B4FC77
:101AF0000021022004F088F80221022004F0B4F84A
:101B0000022004F069F81549154804F00FFBFA2289
:101B1000144B92001449154802F006FA041E0FD126
:101B20000F4B00229B5E002B06DB1F2213401E3A48
:101B30009A4013000E4A13600A490C4802F042FD15
:101B4000200010BD8005314090BF00105CBF001028
:101B500028BF0010F4BE0010C4BF0010BD16001056
:101B6000C402000834FB0008F8BF00100000424027
:101B700000E100E0024B1B685B688000C0587047C2
:101B8000ECFB0008004870470000424000487047E6
:101B900034FB000810B50400FFF776FF002800D0E2
:101BA00010BD044B1C60044A2100044803F014FCDF
:101BB000F6E7C046ECFB000834FB0008000042409A
:101BC00070B5184B5B68022823D0032825D0012864
:101BD00002D0012040421BE01B6801221A7001382C
:101BE000114A4300191889008C5819188900511896
:101BF0004D680E7A0D4A16722900200001F0C8FCCB
:101C000032002900200001F027FC0648FFF7C2FF40
:101C100070BD1B6802221A70E1E71B6804221A706B
:101C2000DDE7C046B402000878020008D0010008D1
:101C3000024B5B681B689B69586A7047B4020008D6
:101C4000074BC200D05A9B1859889A88DB880843F2
:101C500010431843C0B2431E9841C0B27047C046FB
:101C600038FC0008F8B50024002C02D0124C2000EB
:101C7000F8BD1500A3009B185B00104E9E5B53003F
:101C80000F4FDB5B9E4201D30134EDE700230B7065
:101C90004C700C4B03602000FFF7D2FF002807D0E8
:101CA000064AA3005D196D00AB5A0133AB52DEE763
:101CB000044800F047FBF3E70110000038FC00087F
:101CC00008C000100000104070B505000C004978F5
:101CD0008B009B185B000F481B5A002B04D0890017
:101CE00089184900013B0B526078FFF7A9FF0028D3
:101CF00008D1094B1B68002B05D02B68002B05DB96
:101D00000123237070BD00F071FAF6E7280000F09F
:101D10005FFBF5E738FC000844FC000870B50400E0
:101D20000D0000280BD0211D2A002000FFF79AFF8C
:101D3000002800D1A57143425841C0B270BD01BE18
:101D4000F1E710B5002803D00379002B02D010BDB5
:101D500001BEF9E78279010001C9FFF7B5FFF6E797
:101D600030B583B005000C00002801D0002901D156
:101D700003B030BD03216846FFF7D0FF002803D130
:101D80006846FFF7DEFFF3E70098A3B2074A116841
:101D90002D228A5C1F2A04D80022290000F0CAFBE9
:101DA000EEE70022290000F053FCE9E7B8FC000848
:101DB00010B5041E01D0002900D110BDFFF7D0FFDF
:101DC00003212000FFF7AAFFF7E7000070B5050028
:101DD0000C1E22D0002B23D0006816490E682D213E
:101DE000715C1F2911D8210000F0ACFC00281AD129
:101DF0002868104B1A682D23D35C1F2B09D82100AB
:101E000000F056FD002811D170BD210000F024FE25
:101E1000ECE7210000F0AEFEF4E701204042F3E7DA
:101E200001204042F0E701204042EDE7012040421E
:101E3000EAE7C046B8FC000870B5002913D0002AB4
:101E400014D0CC68002C14D000680D4C25682D24CB
:101E50002C5D1F2C04D800F041FD00280CD170BD72
:101E600000F09EFEF9E701204042F8E701204042E1
:101E7000F5E701204042F2E701204042EFE7C0468B
:101E8000B8FC000810B5002913D0002A14D0CB6884
:101E9000002B14D000680D4B1C682D23E35C1F2B16
:101EA00004D800F067FD00280CD110BD01F028F81F
:101EB000F9E701204042F8E701204042F5E7012020
:101EC0004042F2E701204042EFE7C046B8FC00087C
:101ED00010B59821FFF76CFF10BD10B50B00010085
:101EE0000831002B05D1022203003833FFF76EFFC3
:101EF00010BD0122F8E710B50C00131E01D100201F
:101F000010BD010008312200FFF796FFF8E710B579
:101F10000A0001000831FFF7B5FF10BD064AD023C3
:101F20009B00D058431C04D1034AD0239B00D058B7
:101F3000F8E7C0B27047C0460000654010B5040025
:101F40000020002804D12100024801F045FEF8E7F6
:101F500010BDC0460000654070B506000D000021B0
:101F600001F0D6FF0021012003F0EAFD040004F097
:101F700071F8E9004B08C01804F0AAF9421E002CC1
:101F800008D0002C0CD0326880231B06134333602A
:101F9000200070BD0021012003F010FD0400F0E7D7
:101FA0000021012003F08AFD0400ECE770B50C006D
:101FB0001600002901D000250CE00025280070BD86
:101FC0000D20FFF7BBFF2078074B1870FFF7B6FF17
:101FD00001340135B542F1DA23780A2BF3D1024BF3
:101FE0001B780D2BEFD0EBE740FC000870B50C0020
:101FF0001600002901D0002503E00025280070BD4F
:102000000134B542FADAFFF789FF207001350A285A
:10201000F4D00D28F4D1F1E710B504000A4A0B49B9
:102020000B4801F0EDFD002808D0002805D1084A32
:10203000116880231B060B43136010BD2100044868
:10204000FFF78AFFF1E7C0467CFC0008F8B30010F8
:1020500000006540014B18607047C046B8FC00089E
:10206000F0B51E4C2768002F2ED0BC6B24182568B5
:1020700006003C6D2418641B651EAC41E4B2A44606
:10208000BC68341925680F242C40062CF8D8120699
:10209000FC6804191A43226063460B4313D00F4BAC
:1020A0001B689B68F3181B68DB03F8D50C4B1A6898
:1020B0002D23D35C1F2B09D8084B1B681B681B18EA
:1020C0001B681B06F8D4F0BD3D00D1E7034B1B682D
:1020D0001B681B181B68002BF8D1F4E744FC0008B0
:1020E000B8FC000810B50400E0239B058022002105
:1020F000FFF7B6FFD0239B05802200212000FFF7C9
:10210000AFFFC0239B05802200212000FFF7A8FF1E
:10211000B0239B05802200212000FFF7A1FFA02310
:102120009B05802200212000FFF79AFF90239B054A
:10213000802200212000FFF793FF80239B0580224F
:1021400000212000FFF78CFFE0235B0580220021A7
:102150002000FFF785FFC0235B05802200212000BF
:10216000FFF77EFFA0235B05802200212000FFF700
:1021700077FF80235B05802200212000FFF770FF9E
:10218000C0231B05802200212000FFF769FF802368
:102190001B05802200212000FFF762FF8023DB0463
:1021A000802200212000FFF75BFF00238022002116
:1021B0002000FFF755FF0B4B1B689B080A4A11686C
:1021C0002D228A5C1F2A0AD80C229340F022920505
:1021D0001343802200212000FFF742FF10BD0D2293
:1021E000F3E7C04648FC0008B8FC0008054B1A6835
:1021F0002D23D35C1F2B03D8034A044B1A6070476E
:10220000034AFAE7B8FC0008D0C0001044FC0008FC
:1022100024C10010F0B583B01400444B1B68002BA0
:1022200075D0002918D0002973D0002C73D08022DB
:102230001202944200D972E08022520194425AD094
:1022400021D88022D200944257D00ED98022120188
:10225000944216D1782225E0002AE4D11A6D111893
:10226000334A1268D46CA400DDE780225200944205
:1022700045D00132FF32944201D17E2212E02D4D31
:102280004AE02C4D48E08022D201944239D080228D
:102290001202944201D1002204E080229201944271
:1022A0003FD16022224D2E682D25765D1F2E2AD922
:1022B000671E01910D003D40394234D11F2E02D9D5
:1022C00012021D4942509B6B1B18019A1A60A30809
:1022D000174A11682D228A5C1F2A16D80C229340B7
:1022E0001A00F0239B05134380220021FFF7B8FE5C
:1022F000124B1C6010E07022D4E77C22D2E77F22D0
:10230000D0E74022CEE70E4FD3E70D22E7E7094D95
:1023100002E0084D00E0074D280003B0F0BD054D78
:10232000FAE7044DF8E7034DF6E7C04644FC000821
:10233000B8FC00080B0032008814000048FC0008BC
:10234000FF3F000010B50400FFF750FF1A4B1A685A
:102350002D23D35C1F2B10D8184B2360184B1B6800
:102360005B6B1B1901221A60164B1B68002B16D0E1
:102370002000FFF7B7FE002010BD2368124A13406B
:1023800023600F4B1B685B681B19104A1A60226898
:1023900080231B06134323600323A360DEE7084B5F
:1023A0001B68196D6118044B1B68DA6C92002000E1
:1023B000FFF730FFDCE7C046B8FC000803000080F0
:1023C00044FC000848FC0008FFFFFE7F01000200FB
:1023D000084B1A682D23D35C1F2B06D800230360FB
:1023E000054B00221A6000207047002303608360C1
:1023F000F6E7C046B8FC000848FC0008F0B50E4CF3
:1024000025680700AC68241826680F243440042C83
:10241000F5D8E868C019094C046007480468E46806
:10242000E41921600168C968C9190A600268D268A4
:10243000D7193B60F0BDC04644FC000810020042C2
:10244000F0B5104C25680700AC68241826680C24E9
:102450002642F6D1E868C0190B4C046009480468AC
:10246000E468E41921600168C968C9190A60026852
:10247000D268D21913600368DB68DF19059B3B60E3
:10248000F0BDC04644FC00081032004370B504AAF9
:102490001678094A1468A268121812681207F8D44C
:1024A00009060222B240114301229A40E3681D1836
:1024B0001143296070BDC04644FC000830B50C4A89
:1024C00014680500A268121812681207F7D40906EA
:1024D0000322049882401143022203988240114350
:1024E00001229A40E3685D191143296030BDC0465E
:1024F00044FC000810B582B0040008001100002B55
:1025000001D102B010BD02002000FFF777FF0823C1
:102510000093043B002250212000FFF7B7FF044B3B
:102520001B681B681B191B68DB06F8D4E9E7C0466B
:1025300044FC000810B582B0040010001A1E01D13E
:1025400002B010BD03002000FFF758FF0C230093DA
:10255000043B002251212000FFF798FF034B1B682A
:102560001B681B191B68DB06F8D4E9E744FC00086C
:10257000F0B5002B00D1F0BD9C46304C276805001B
:10258000BC68241826680F243440042CF5D886240F
:1025900064010459002CFADBFC682C19284F2760D1
:1025A000264F3C68E4682C1922603A68D268AD185E
:1025B00062462A60214A15680400AA681218176842
:1025C0000F223A40042AF5D8EA6882181D481060A4
:1025D0001A480268D268A21811600268D268A2186C
:1025E000614611600EE0154A11688A68A2181068E9
:1025F0000F220240062AF6D8CA68A21812491160B2
:10260000103B9BB20F2BEED8002B0ED00B4A11685B
:102610008A68A21810680F220240062AF6D81B0406
:10262000CA68A21809490B431360044B1B681B6856
:10263000E3181B68002BF8D19DE7C04644FC000856
:10264000080000710C00007008C0104008C0004075
:10265000F0B5002B48D09C46244C26680500B46891
:10266000241827680F243C40042CF5D8F06828185B
:102670001F4C04601D4C2068C06828180160216848
:10268000C9686918604608600FE0184908688168E1
:1026900069180C680F2121400629F6D8C16869180D
:1026A000144810430860103B9BB20F2BEDD8002B51
:1026B00013D00E490868816869180C680F21214001
:1026C0000629F6D81B04C02109020B43C16869180A
:1026D0001A438423DB051A430A60044B1B681B68FA
:1026E000EB181B68002BF8D1F0BDC04644FC000875
:1026F0000C00007000C0104210B582B004000B0046
:102700001100072258680240C020800022501A6938
:102710009B6900922000FFF793FE0C230193043B7A
:102720000093043B00224C212000FFF7C7FE044B1E
:102730001B681B681B191B685B07F8D402B010BD2F
:1027400044FC000810B5002B01D0002900D101BEC7
:10275000062A00D998E090004C4C205887468B60A0
:1027600018004030086154338B610A6000234B60CD
:10277000474BCB624023CB602C3B4B614B622D33EC
:10278000FF33CB61002010BD8B6018004030086122
:1027900060338B610A6001234B603E4BCB62402368
:1027A000CB60203B4B61043B4B62E433CB610020A8
:1027B000E9E78B6018004030086160338B610A6084
:1027C00001234B60344BCB624023CB60203B4B61F9
:1027D0004B62E033CB610020D5E78B60180080307E
:1027E0000861C0338B610A6002234B602B4BCB62C4
:1027F0008023CB60403B4B61103B4B62A0239B008E
:10280000CB610020BFE78B60180080300861C033C7
:102810008B610A6002234B60214BCB628023CB602B
:10282000403B4B614B62A0239B00CB610020AAE799
:102830008B60180080300861C0338B610A6002230E
:102840004B60184BCB628023CB60403B4B61243BF9
:102850004B62A0239B00CB61002094E78B601800A3
:1028600080300861C0338B610A6002234B600E4BDD
:10287000CB628023CB60403B4B61203B4B62A0236B
:102880009B00CB6100207EE708487CE778C1001000
:1028900094C10010A8C10010C8C10010E8C1001008
:1028A00028C2001068C20010A8C200100B0032003D
:1028B00010B50A1E0ED000238B620B624B69002BF1
:1028C00001D1054810BD0969D26A9BB2FFF712FE1B
:1028D0000020F7E70048F5E70B003200F0B5D646D8
:1028E0004F464646C0B581460E001700002931D03C
:1028F000002A31D0CA689046002A2FD0002B34D04D
:102900000A6AD2180A628C6A1D002B19984515D8DC
:1029100043461B1B9A46B368191953469BB23A00AB
:102920004846FFF7E7FDB26831004846FFF7E4FE8E
:102930004346E41A2D1957440024E6E7B362002DFC
:102940000DD0B1680919ABB23A004846FFF7D2FD85
:10295000002504E0064D02E0054D00E0044D28008E
:10296000E0BCBA46B146A846F0BD1D00F7E7C04638
:102970000B003200F0B5DE4657464E464546E0B500
:1029800083B000900E00140000295FD0002A5FD0B1
:102990000D698B689846CF688B6A9A460B6ADB0094
:1029A0009946802F2DD038230193802342465146EB
:1029B000535401314144BBB29B4652469B1A9BB2D1
:1029C000013B9BB200220098FFF7B4FD019B5345E9
:1029D0001AD93B1F4A46120E4146CA544B461A0C9E
:1029E000FB1ECA544B461A0ABB1ECA54013F4A4634
:1029F000CA55424631000098FFF77EFE706A800893
:102A00001BE070230193D0E742463100009B9A46B9
:102A10001800FFF771FE5B46002241465046FFF763
:102A200089FDD6E7EB782370AB7863706B78A37081
:102A30002B78E3700434043501380028F2D103B058
:102A4000F0BCBB46B246A946A046F0BD0148F6E739
:102A50000048F4E70B00320010B5002B01D000292C
:102A600000D101BE062A00D970E09000384C2058F1
:102A700087468B6040330B610A6069234B60354B9E
:102A8000CB624023CB602C3B4B614B62002010BDDE
:102A90008B6040330B610A606A234B602E4BCB6224
:102AA0004023CB60203B4B614B620020EFE78B6003
:102AB00040330B610A606A234B60284BCB62402392
:102AC000CB60203B4B61043B4B620020DFE78B6017
:102AD00080330B610A606B234B60214BCB628023F8
:102AE000CB60403B4B614B620020D0E78B60803372
:102AF0000B610A606B234B601A4BCB628023CB6067
:102B0000403B4B61103B4B620020C0E78B60803341
:102B10000B610A606B234B60134BCB628023CB604D
:102B2000403B4B61203B4B620020B0E78B60803321
:102B30000B610A606B234B600C4BCB628023CB6034
:102B4000403B4B61243B4B620020A0E708489EE7D6
:102B5000E8C2001004C3001038C3001018C30010EE
:102B600098C3001058C3001018C40010D8C3001038
:102B70000B00320010B50A1E0ED000238B620B62D0
:102B80004B69002B01D1054810BD0969D26A9BB27F
:102B9000FFF7EEFC0020F7E70048F5E70B003200F6
:102BA000F0B5DE4657464E464546E0B583B00500D3
:102BB00090461A000093002900D189E14346002B7A
:102BC00000D187E1CF68002F00D185E1002A00D134
:102BD0008AE10B6A9A180A628E6AC44A10682C004D
:102BE00082685219126894460F2263461A40062AD8
:102BF000F3D8C268AA18C820C0051060BB4A106884
:102C000003681A191268002AF8D10B699C464B69AF
:102C10009B4683681A1913680F221A40042AF8D8B1
:102C2000C2681219B24B1360B04B99461A68D26849
:102C30001219634613604B461A68D26812195B4634
:102C400013604B699946A94A106883681A1913687A
:102C50000F221A40062AF6D8C2681219CC20C005E5
:102C60004B4618431060A14A106803681A1913688C
:102C70009A46002BF7D183681A1913680F221A405D
:102C8000062AF8D8C2681219CA23DB051360002E81
:102C900034D08B689C46954A136899469B68E21825
:102CA00010680F220240042AF5D84B46DA68A218B1
:102CB0008F4B13608D4B99461B68DA68A2186346E8
:102CC00013604B461A68D268A2181660874A1368C8
:102CD0009C469B68E21810680F220240062AF5D82D
:102CE0006346DA68A218CC23DB05334313607F4ABE
:102CF00012681268A2181268002AF8D17B4A12687A
:102D000001959368581900680F2318400428F5D8D6
:102D10008620400128580028FADBD568019B9C4694
:102D20006544744A2A60714A94461568ED6899466C
:102D30004D4442462A6062461568ED685A19009B68
:102D400013602AE0BB1B9C46684A1568AA68A21853
:102D500010680F220240062AF6D83202ED68651983
:102D600060461043CC22D20502432A604B689C4641
:102D70005E4A1568AA68A21810680F220240062A47
:102D8000F6D8EA68A21863461D061560F61B009B7C
:102D90009C46B444634600935646009B9A1997425A
:102DA000D0D98A62002B18D0504A10688368E21884
:102DB00015680F222A40062AF6D83602C268A218E1
:102DC000009B3343CC26F60533431360474B1B6807
:102DD0001B68E3181B68002BF8D18D6A002D2DD0DD
:102DE0008E68424B1A689368E31818680F230340F3
:102DF000042BF6D8D368E3183F4A1A603B4A13689D
:102E0000DB68E3181E601368DB68E3181D608D6AD9
:102E1000364B1A689368E31818680F230340062B93
:102E2000F6D8D368E318CE22D2052A431A602F4B76
:102E30001B681B68E3181B68002BF8D10E694D69ED
:102E40002A4B1A689368E31818680F230340042B71
:102E5000F6D8D368E318284A1A60244A1368DB6856
:102E6000E3181E601368DB68E3181D601F4B1A68C7
:102E70009368E31818680F230340062BF6D8D3682D
:102E8000E318CA22D2051A604869184B1A68936879
:102E9000E31819680F230B40062BF6D8D368E31804
:102EA000CE22D20502431A60104B1A681368E31849
:102EB00018680028F8D19368E31819680F230B40AD
:102EC000062BF8D8D368E418CA23DB05236004E096
:102ED0000A4802E0094800E0084803B0F0BCBB46DD
:102EE000B246A946A046F0BD0098F6E744FC0008AB
:102EF00008000070080000710C0000700B00320028
:102F0000F0B5DE4657464E464546E0B583B005006F
:102F10009346002900D18AE1002A00D189E1CE68D8
:102F20008B6A9C460F6A7B0F0193FF00802E00D1B5
:102F30007AE138239946C04B1C682B00A2685219CD
:102F400010680F220240062AF5D8E0682818C82425
:102F5000E4050460B84A10680268D2181268002AB2
:102F6000F8D10A6992464A6990468268D218146874
:102F70000F222240042AF8D8C068C018AF4C046061
:102F8000AD4C2068C068C018524602602068C06816
:102F9000C018424602604A699046A74A1468A2686F
:102FA000D21810680F220240062AF6D8E068C0182E
:102FB000CC24E4054246144304609F4A1468226806
:102FC000D2181268002AF8D1A268D21810680F220D
:102FD0000240062AF8D8E068C018CA24E405046054
:102FE0008A689246944A1468A268D21810680F2220
:102FF0000240042AF6D8E068C018904A02608E4A5F
:1030000090461068C068C018524602604246106878
:10301000C068C01862460260874A1468A268D21865
:1030200010680F220240062AF6D8E068C018CC24A7
:10303000E4056246144304607F4A14682268D2188B
:103040001268002AF8D1A268D21810680F22024034
:10305000062AF8D862461202E068C018784C144379
:103060000460E14516D84A689046734A1468A2681D
:103070009A1810680F220240062AF6D8E06818183D
:103080004246140604606C4A126812689A18126864
:10309000002AF8D1721F90466A4612799146664A14
:1030A0001468A2689A1810680F220240062AF6D8FF
:1030B00042461002E4681C194A461043D022D20549
:1030C00010432060321F90463A0E91465A4A1468C7
:1030D000A2689A1810680F220240062AF6D84246C3
:1030E0001002E4681C194A461043D022D20510434E
:1030F0002060F21E9046380CC2B291464E4A1468C7
:10310000A2689A1810680F220240062AF6D8424692
:103110001002E4681C194A461043D022D20510431D
:103120002060B21E9046380AC2B29146424A1468E4
:10313000A2689A1810680F220240062AF6D8424662
:103140001002E4681C194A461043D022D2051043ED
:103150002060013EFAB29446374A1468A2689A1871
:1031600010680F220240062AF6D83702E0681818C5
:1031700062461743D026F605374307604F682E4A4C
:103180001468A2689A1810680F220240062AF6D81E
:10319000E06818183F060760274A166832689A18D0
:1031A00010680028F8D14A6A9446B2689A181468E0
:1031B0000F222240042AF8D8F4681C19214E2660F8
:1031C0001D4E3468E4681C195A4622603268D26881
:1031D0009A1864461460184A1468A2689A18166807
:1031E0000F223240062AF6D8E2689A18CA24E4056B
:1031F00014604E6A104A11688A689A1814680F227F
:103200002240062AF6D8CA689B18CE22D20532433D
:103210001A600D4BEB58002BFBDB03B0F0BCBB4638
:10322000B246A946A046F0BD7023994683E60748FA
:10323000F3E70648F1E7C04644FC000808000070C8
:10324000800000680C000070F01000000B003200DD
:10325000C00543425841C0B270470000A0231B067E
:1032600098422AD014D8802829D008D980235B001E
:1032700098422AD01B4B984209D01B4807E01028DF
:103280001FD0402801D1194801E000281BD1704708
:10329000174B98421BD007D9164B98421ED0164B9D
:1032A00098421DD11548F2E7154B984211D0154BA5
:1032B000984211D1A420C003E9E70020E7E71248B3
:1032C000E5E71248E3E70848E1E70648DFE710488A
:1032D000DDE7A020C003DAE70348D8E70D48D6E7CA
:1032E0000148D4E706005200FF00520002005000DF
:1032F000030000F0040000F0050000F0030052009D
:10330000090000A0010000F005005200010050007B
:10331000010052000200520010B50F4B1A6833230F
:10332000D35C002B00D101BE0B4B1C68BC23E358BF
:10333000226A944663441B68002B0BDB074B18681A
:10334000FFF78CFF636801229A6063689B68002B1B
:10335000FBD110BD0248FCE7B8FC00084CFC00089B
:103360000200500010B50400FFF772FF002801D1E1
:10337000134810BDFDF70EF8124B134A1A605C603B
:1033800000229A60DA60114B1A685423D35C002B38
:1033900010D002F06CFEFA21890002F099FF0100C2
:1033A0000B4802F095FF0B4BC1188020400008F03D
:1033B0001BF8DEE780200021400008F015F8D8E770
:1033C000060052004CFC00080001001CB8FC00087C
:1033D00060F590009808000070B504000D00FFF73C
:1033E00037FF002827D0002D27D0FCF7D3FF144B40
:1033F000144A1A6000225A609C60DD60124B1A6801
:103400005223D35C002B10D002F031FEFA21890048
:1034100002F05EFF01000D4802F05AFF0C4BC1188C
:103420008020400007F0E0FF06E0802000214000FF
:1034300007F0DAFF00E0074870BD0648FCE7C04629
:103440004CFC000800010005B8FC0008C0EA21019E
:10345000482600000600520010B5072900D901BE19
:103460001F2314009C4300D001BE104B1B689C69B5
:10347000001BC0095B690001181803290AD80468F9
:10348000C9001F238B409C431F231A408A402243BC
:10349000026010BD04394468C9001F238B409C435F
:1034A0001F231A408A4022434260F2E7B8FC00081A
:1034B000072900D901BE012A00D901BE01238B4092
:1034C000002A01D1436070478360FCE730B50400F7
:1034D000072900D901BE0F231000984300D001BE78
:1034E0008900074B18688123C05C00190468723B8F
:1034F0001D008D40AC4313408B402343036030BD1F
:10350000B8FC000830B50300072900D901BE012A24
:1035100000D901BE074804688220205CC0180468F6
:1035200001231D008D40AC4313408B4023430360B7
:1035300030BDC046B8FC000830B5082900D901BE2E
:10354000012A00D901BE846901231D008D40AC43CE
:1035500013408B402343836130BD000030B503002E
:10356000082900D901BE032A00D901BE4900074835
:1035700004688020205CC018046803231D008D406F
:10358000AC4313408B402343036030BDB8FC0008BC
:10359000F8B5CE46474680B507000E001400002857
:1035A00000D1ACE0002A00D1ABE0072900D901BE70
:1035B0002368012B00D901BE0F2362689A4300D013
:1035C00001BE237A1F22934300D001BEE368032B80
:1035D00000D901BE2369012B00D901BE6369012B0B
:1035E00000D901BE236A012B00D901BE636A012BF9
:1035F00000D901BEA36A012B00D901BEE36A032BE7
:1036000000D901BE236B072B00D901BEE369032B50
:1036100000D901BEA369012B00D901BE01252B00F1
:10362000B3407000103003229146110081400B43DB
:103630009C46354B9846832341460968C95CC919A5
:103640000B68624693439C46A3692B40B340624695
:1036500013439C46E2694B4613401A00824063467E
:1036600013430B60626831003800FFF72FFF227AA6
:1036700031003800FFF7F0FEE26831003800FFF754
:103680006DFF226931003800FFF756FF6269310093
:103690003800FFF737FF43461A688423D25CBA1814
:1036A00010687B3398469843236A1D40636A5B0029
:1036B0009C46022361460B401D43A36A9B009C4627
:1036C000042361460B402B43E16AC90018250D40D5
:1036D0002B43216B4D01414629400B43B100FE2590
:1036E000AD0029408B40034313602268310038004D
:1036F000FFF7DEFE0020C0BCB946B046F8BD034867
:10370000F9E70248F7E7C046B8FC000801005A0094
:10371000084B1A68BC23D3581B181B68002B07DA08
:103720000B0C00D001BE0904090C41600020704759
:103730000148FCE7B8FC000801008A000368002B80
:1037400008DAC2600B0C00D001BE0904090C8160CC
:10375000002070470048FCE701008A0000290BD0D8
:10376000074B1A68BC23D3581B181B68002B05DABB
:10377000C3680B600020704701BEF1E70148FAE71B
:10378000B8FC000801008A00034B1B68002B00D026
:103790007047014B1860FBE760FC000870B504003F
:1037A00024480068002842D0224805682C20604345
:1037B0002818FF2425001D4005601E0A344044607F
:1037C0001B0C83601C4B1C683323E35C9D4200D3BD
:1037D00001BE194B1C68BA23E35A6B43256AAC46F9
:1037E0006344036143683425645DA34200D301BE92
:1037F000114C2468246A80335B01E41844618368B7
:103800001D0C2E04002D00D001BE002E00D001BEE4
:103810001B041D0C2B43A360C26101620023836162
:10382000049B002B02D000229B5E838170BD01BEF1
:10383000BAE7C04660FC0008B8FC0008F0B58FB0DD
:10384000041E44D06368032B00D901BEE36A002B39
:103850003FD0236B002B3ED007AA1300210061C983
:1038600061C321C921C302AE230014333100A1CBAF
:10387000A1C121CB21C10821535E0CAD2B80174B78
:103880001B681B8F079989B25B186B80089B0D938F
:103890000B9B0A980095A26AE16AFFF77FFF3369E4
:1038A000F068002200920021FFF778FF216B2800CA
:1038B00002F03CFC0022AB5E002B06DB1F22134013
:1038C0001E3A9A401300064A13600FB0F0BD01BEC5
:1038D000B8E701BEBDE701BEBEE7C046B8FC0008C0
:1038E00000E100E0F0B504000800002A2CD01B49DC
:1038F000096800292AD0194909682C256C430C193C
:103900004543491901263500486885402D04606803
:1039100086402769002F1BD0886900281AD13F688C
:10392000002F19DA17683F043F0C3D4315602569E5
:10393000EA6001228A614B622369320C00D001BE29
:103940003604360C9E60F0BD01BED0E701BED2E762
:103950000348F8E70348F6E70248F4E760FC00088C
:1039600004028A0007028A0070B582B004000023B6
:10397000019300282BD02369002B2AD06369002BE8
:1039800029D0236A002B28D06369DD682A0C0BD06C
:1039900012041A601B682069204B1A68BC23D35894
:1039A0001B181B68002B1ADB2D042A0C002D0AD0D3
:1039B00063691A601B68636A002B2AD0984700234A
:1039C00063620023A36163691B6802B070BD01BE1E
:1039D000D1E701BED2E701BED3E701BED4E701A91A
:1039E000FFF7BCFE00280ED101980268160CFF23D9
:1039F0001340E2699A4207D99B00226AD358002BF0
:103A000002D0984700E0002631002069FFF780FED1
:103A1000CAE7A36A002BD4D09847D2E7B8FC0008C5
:103A200010B50200064B1B68002B07D0044B18682A
:103A30002C235343C018FFF797FF10BD01BEF5E7D5
:103A400060FC000870B50C00194B1B6833229A5CAF
:103A5000824228D9002928D00A68D10601D0154809
:103A600022E01D6ABA215B5A58432D18124E356068
:103A7000D2080021606802F0A2FF00212800FFF7B1
:103A800047FE306822000021FFF758FE002801D0D1
:103A90000A4809E0084B18680021FFF739FE0028A2
:103AA00002D0064800E0034870BD0248FCE7C0466B
:103AB000B8FC000803018A0064FC000801018A00C8
:103AC00010B50B00002A05D0002A1DD0002B15D1FF
:103AD0000E4810BD0029F7D10D4A116833228A5CC7
:103AE000904200D301BE0A4A11680A6ABA24095BEF
:103AF0004843121807490A601800EAE706490B60B4
:103B00004A60FFF79FFFE4E70048E2E703018A000D
:103B1000B8FC000864FC0008F0070008F0B5C646D1
:103B200000B50C00194B1B68DE68336883422BD943
:103B300047091F23184001258540002918D000237C
:103B40009846124B18680368002B17DA7368BF0099
:103B5000DF193B681D420FD0AB433B6000250021BD
:103B6000FFF7D6FD002C0BD0280080BCB846F0BD76
:103B7000FCF703FC8046E4E7054DF0E7054DF1E76F
:103B80004046FCF7FEFBEFE7034DEDE764FC000861
:103B9000020188000301880004018A000A4B1B68A7
:103BA000DB681A6882420BD941091F2210401E3A75
:103BB0008240586889000B581A4203D0034800E03D
:103BC000034870470348FCE764FC000801018800D3
:103BD00004018A000001880003681B050CD58022BF
:103BE00082239B00C358DB05DB0D934206D0902354
:103BF0009B00C150012070474022F1E70020FAE706
:103C0000F0B5002800D16CE1002900D16BE10B7800
:103C1000022B00D901BE4B7B023BDBB2062B00D945
:103C200001BE8B7B002B04D0022B02D0032B00D0D3
:103C300001BE2123CB5C012B00D901BE2823CB5C24
:103C4000012B00D901BE0B78012B07D98B7F002BEC
:103C500009D04B68013B062B05D903E04B68083BB4
:103C6000082B00D901BE8B68053B042B00D901BE8F
:103C70004B69FF2B00D901BE8B69FF2B00D901BE18
:103C80008B7C002B06D00B78002B02D18B68092B84
:103C900074D001BE964B4C6B1C4200D001BE954BBC
:103CA000CC6B1C4200D001BE0B78022B6AD04B6853
:103CB0005D1E0B7F002B6AD080235B028C68082C72
:103CC00067D88024240123430F242C4023438024DD
:103CD000A404234303600C6B03681B055BD580239E
:103CE0009C4200D301BE8C6B03681B0555D5802315
:103CF0009C4200D301BE4C6A03681B054FD580234C
:103D00009C4200D301BE0B781B06C024A4042340B0
:103D100003644B7F002B44D040238C7C002C42D08A
:103D20008024E40023430C7C002C3ED080246400DB
:103D300023434C7C002C3AD08024A4002343CC6A3B
:103D4000013C2404F0252D032C4023434D7B013DF1
:103D500007242C4023438D7B2D0130242C4023430A
:103D600083640B7B002B24D080246400CB7B002B4E
:103D700021D10B78022B46D000231EE08B7B002B39
:103D800088D086E78B7F002B91D1002591E7002317
:103D900094E7002497E74023A2E74023A8E74023C5
:103DA000AEE70023B9E70024BCE70024C0E7002405
:103DB000C4E70024DAE780239B001C438B685D1E68
:103DC0000F231D402C43C026B6008451FF244D69AB
:103DD0002C408D692D04FF273F043D402C43C42512
:103DE000AD004451CC6A85592B4003339C4201D32A
:103DF000102C00D901BECB7F002B07D00B78012BF4
:103E00005FD0002503E080239B00D6E700254C7B94
:103E1000013C072323402B438D7B2D0130242C4074
:103E2000234343640B7B002B4ED080256D008B68B1
:103E30005C1E0F2323402B430C78012C46D000241A
:103E400023438024A4000351FF230C6B2340C1248F
:103E5000A40003512023CB5C002B3AD080239B0489
:103E600021240C5D012C36D00024234328240C5D32
:103E7000012C33D000242343FF244D6A25402B43DB
:103E800003658B6B1C4081239B00C4501A4B4C6B09
:103E900023401A4C03511A4BCC6B2340194C03514D
:103EA000002A22D00023536013609360D360136212
:103EB000D3625363897F3033D154134B9363002013
:103EC000F0BD80256D00A2E70025B0E780246402E4
:103ED000B6E70023C4E780246404C6E780246402B4
:103EE000C9E70A48ECE70948EAE70020E8E7C046E6
:103EF00092F4FFFF8CF8FFFF6D0B0000C80F00006D
:103F000073070000880F0000EFCDAB000160AA002E
:103F100003685B005B080360002904D000234B604A
:103F20000B600B62CB62704710B5002832D00029BD
:103F300032D0002B32D05A62F922D20083580324A7
:103F4000A34383500B78012B00D901BE0B7A032BBE
:103F500000D901BE4B68072B00D901BE0B7B012B9A
:103F600000D901BE01230A6813408A681203C024E5
:103F7000A401224013434A681204E024E4022240D0
:103F80001343CA681206802149040A4013430360A0
:103F9000002010BD0248FCE70148FAE70048F8E7B6
:103FA0000400B2004B1EDBB2012B04D9042902D05D
:103FB000082900D001BE032A00D901BE042920D05F
:103FC00008D801290DD002291AD188231B019C464B
:103FD00060440AE0082913D198231B019C466044E1
:103FE00003E080231B019C466044002808D003683E
:103FF00006490B401204C02189020A401A4302609C
:10400000704790231B019C466044EEE7FFFFFCFFD6
:10401000F8B5DE4657464E464546E0B5070008006F
:104020009A460AAB40CB1B789B460CAB1B78111F02
:10403000C9B2FA2900D801BE59460439C9B2FA29D1
:1040400000D801BE591EC9B2012904D9042B02D0DF
:10405000082B00D001BE002E02D0514600291CD0F2
:10406000002E02D05946FF2919D01B02F021090168
:104070000B4099460E9B5D6A1104C02292021140CA
:104080004B4619430143002E0BD10D9BDA07120C4E
:1040900011433965002400200CE001BEE0E701BEB9
:1040A000E3E70022F4E703433B650134E4B2002D6B
:1040B0001FD128002100B44225D2164B984222D0AD
:1040C0007B6C0422100018401A42F0D153465B5C0E
:1040D0004A46134398465A461204C0239B021A408C
:1040E000434613430131B142DDD30D9AD007000C92
:1040F000D9E7012002F096F8013D002D01D0002003
:10410000D8E70448D6E7F0BCBB46B246A946A0466D
:10411000F8BDC0460200B200F0B5C64600B58AB090
:104120000500181FC0B2FA2800D801BE002A00D12D
:10413000FBE06C6C042630002040264200D0F9E001
:104140001B04C024A4022340541E2404240C234333
:104150008024E40223432B65002900D1E6E0109B74
:104160005E6A009102920023079302330693BEE039
:104170005978090218780143D87800069F783F04DF
:10418000384301439827E9515979090218790143C5
:104190008846D879000699790904084341460143C5
:1041A000E9511B19121B84216858753908400739D9
:1041B000091A14008A4200D90C00002C00D183E0B7
:1041C000082CD5D0012C24D0022C26D0032C2BD0A7
:1041D000042C33D0052C3ED0062C4CD0072C5DD0BF
:1041E0005978090218780143D87800069C7824048D
:1041F0002043014398242951597909021879014330
:10420000D87900069F793F04384301432951903CF7
:10421000C7E7187890216850C3E7597809021878E1
:10422000014394202950BCE75978090218780143CA
:1042300094202950987890216850B2E75978090263
:1042400018780143D87800069F783F04384301432B
:1042500098202950A5E75978090218780143D878A1
:1042600000069F783F04384301439820295018796D
:104270009021685095E75978090218780143D87859
:1042800000069F783F04384301439820295059790C
:104290000902187901439420295082E759780902CC
:1042A00018780143D87800069F783F0438430143CB
:1042B00098202950597909021879014394202950EE
:1042C0009879902168506CE700930292002A0CD1F3
:1042D000F921C9006B58013293436B500692079B3A
:1042E000002B02D0079B01209847301E13D1069B5C
:1042F000022B1BD1104B984218D0029A009B8421AC
:104300006858753908400739091A14008A4200D8DC
:1043100053E70C0051E7012001F084FF013E002E1D
:1043200001D02000E3E7044CFBE704480AB080BC5E
:10433000B846F0BD0248F9E70200B2000400B2003E
:104340000100B200F0B50400069D181FC0B2FA28A3
:1043500000D801BE002A21D0666C04273800304006
:1043600037421DD11B04C026B6023340561E360408
:10437000360C3343802636033343236500290ED0A1
:10438000E9602A616A61059B2B620423AB61F92213
:10439000D200A35802210B43A35000E00148F0BD16
:1043A0000148FCE70400B2000100B200F0B58BB098
:1043B0000500181FC0B2FA2800D801BE002A00D19B
:1043C000DAE06C6C042630002040264200D0D6E0B3
:1043D0001B04C024A4022340541E2404240C2343A1
:1043E0008024240323432B65002900D1C5E0109BC2
:1043F0005F6A0391059200230893043306939FE0BC
:10440000D8216A581A70100A5870100C9870120E41
:10441000DA706A581A71110A5971110C9971120ED9
:10442000DA711B19361BC422A958B53A0A40340068
:10443000964200D91400002C6DD0082CE0D0012C3D
:104440001ED0022C20D0032C24D0042C2BD0052CE1
:1044500033D0062C3ED0072C4BD0D8216A581A7086
:10446000100A5870100C9870120EDA706A581A718F
:10447000110A5971110C9971120EDA710824D0E7E2
:10448000D022AA581A70CCE7D422AA581A70120A5D
:104490005A70C6E7D422AA581A70120A5A70D0224B
:1044A000AA589A70BDE7D822AA581A70110A5970F2
:1044B000110C9970120EDA70B3E7D822AA581A704C
:1044C000110A5970110C9970120EDA70D022AA5884
:1044D0001A71A6E7D822AA581A70110A5970110C3D
:1044E0009970120EDA70D422AA581A71120A5A71EF
:1044F00097E7D822AA581A70110A5970110C9970AE
:10450000120EDA70D422AA581A71120A5A71D022E5
:10451000AA589A7185E703930596002E0DD1F922CA
:10452000D200AB5802218B43AB5003230693089B68
:10453000002B02D0089B032098470596381E11D106
:10454000069B042B19D10F4B984216D0059E039B56
:10455000C422A958B53A0A403400964200D86AE706
:10456000140068E7012001F05DFE013F002F01D03B
:104570002000E5E7034CFBE703480BB0F0BD034820
:10458000FBE7C0460200B2000400B2000100B20026
:1045900010B5030000290DD0426C04242000104007
:1045A000144209D101390904090CC0221203114334
:1045B000196510BD0148FCE70148FAE70400B200A4
:1045C0000100B20000230B604B608B60CB600B617D
:1045D0004B618B61026880231B06134303607047A5
:1045E00070B58D69AA682B6AFF26CC68B4438460D5
:1045F0000C696442B443C4602D68013D03242C401F
:104600004969002901D08021490021430162002A23
:1046100033D01468611C67D0FF2121401479240431
:10462000C025AD022C40214380242406214301648F
:1046300051790904C024A402214041649468611C9A
:1046400054D0FF212140147B2404C025AD022C400E
:10465000214380242406214381641169002905D067
:1046600001391F240C40802109062143C164127DB9
:104670001204C02189020A400265002B33D0196858
:104680004A1C35D0FF220A4019790904C024A4022B
:1046900021400A43802109060A4302665A7912041E
:1046A000C02189020A40426699684A1C22D0FF2232
:1046B0000A40197B0904C024A40221400A43802136
:1046C00009060A4382661A69002A05D0013A1F21A9
:1046D0001140802212060A43C2661B7D1B04C022C1
:1046E00092021340036770BD0021A0E70021B3E7E9
:1046F0000022D2E70022E5E770B505000822002677
:10470000002000E008328B790133DB00934216D39E
:10471000FF232B408C5CA342F4D12C0AFF232340BF
:104720008C18E479A342EDD18B185B78B342E9D3BE
:104730008C18A478012CE5D11E001000E2E770BDB2
:1047400070B50C0015001E00FFF7D6FF00280BD037
:1047500021180B79AB704B796B708B792B70CB7800
:104760009B003360002070BD0048FCE78000B20071
:104770008278520803231340012B07D0022B07D065
:10478000002B01D0002070470320FCE70420FAE74B
:104790000420F8E702004079000213791843D37926
:1047A0001B069279120413431843002B02DB0130DD
:1047B000C0087047033880231B061843F9E7437A83
:1047C0000B6000230B7102334B71037A5B0908D134
:1047D000013B8B60027A1F2313400B6102230B7590
:1047E0007047FF238B60FD3B0B73F3E7C37A0B60CD
:1047F00000230B714B71837A5B0908D1013B8B60FD
:10480000827A1F2313400B6102230B757047FF232D
:104810008B6000230B73F3E7C37B0B6000230B71EA
:1048200001334B71837B5B0908D1013B8B60827B39
:104830001F2313400B6101230B757047FF238B600F
:10484000FE3B0B73F3E7437B0B6000230B714B7153
:10485000037B5B0908D1013B8B60027B1F23134064
:104860000B6101230B757047FF238B6000230B73D3
:10487000F3E703230B6000230B714B7101225242BB
:104880008A600B610B75704710B50B001100012B8E
:104890000DD0032B09D00123002B12D083789A0668
:1048A00007D45B0609D4FF2010BD0023F4E70023E2
:1048B000F2E7FFF784FF0520F6E7FFF797FF0420F4
:1048C000F2E78378DA0605D4DB0707D4FFF7D1FFD8
:1048D0000120E9E7FFF7A0FF0320E5E7FFF7B3FFBB
:1048E0000220E1E70068052907D889000D4B5B58D5
:1048F0009F46830601D5EC2313607047C306FCD5A1
:104900006C231360F9E70307F7D5BC231360F4E7C2
:104910004307F2D53C231360EFE78307EDD50C2363
:104920001360EAE758C400102823C35C1B09012068
:1049300098407047F0B5C64600B54F6A1B3843082B
:1049400098460F263E400021002511E0012C00D1A1
:104950001025741C01336B43480084468C44604628
:1049600080008446944463435B0060468360013169
:10497000032918D8CB005B1A3800D840030000097F
:104980005B0A03241C401F230340022C09D003D8D8
:10499000002CDBD10125DCE7032CDAD1FA25AD00B0
:1049A000D7E78025D5E743465B00434498000C38A1
:1049B0001218906880BCB846F0BD436A816A480FFF
:1049C00003220240090E1F20014010381840022A1D
:1049D00011D00BD8002A11D0012A11D180235B00FD
:1049E000421C481C5843504340007047032A09D1D9
:1049F000FA231B02F4E7FA231B01F1E71023EFE788
:104A00000023EDE70023EBE7836A190A1F2001402A
:104A10000F221A409B0406D408230132481C584335
:104A20005043400070474023F7E70623036000230C
:104A3000037170470423036000230371704702234E
:104A400003600023037143710122524282600373A9
:104A500003610375704712230360002303714371E0
:104A6000012252428260037303610375704734234D
:104A70000360002303714371012252428260037379
:104A800003610233037570473E2303600022027105
:104A90003C3B43710121494281600373026103750C
:104AA000704710B50368042922D009D80139C9B26A
:104AB000022904D85B062BD51000FFF7CCFF10BDF0
:104AC0000529FCD1D90507D4190609D45B060BD5F5
:104AD0001000FFF7C0FFF2E71000FFF7D5FFEEE789
:104AE0001000FFF7C4FFEAE71000FFF7A8FFE6E7B2
:104AF000190605D45B0607D51000FFF7ACFFDEE70B
:104B00001000FFF7B4FFDAE71000FFF798FFD6E7D1
:104B10001000FFF794FFD2E7052303600023037121
:104B200070470000C36A002B10D0036B002B0FD01E
:104B30000023026B13713A33CA5C1209333B1340F2
:104B4000052B0ED89B00154AD3589F4601BEECE7B3
:104B500001BEEDE701235B42C363026B1360C26ACF
:104B6000136070470223C363036B01221A60C36A98
:104B700034321A60F5E74023C363036B01221A60E5
:104B8000C36A04321A60ECE78023C363036B3E22DE
:104B90001A60C36A01321A60E3E7C04670C40010AD
:104BA00060230360002303717047F0B505000368BC
:104BB000042B07D01D200B5CFF2B2CD1222829D8D9
:104BC0000230F8E743690120404218604B785B08E7
:104BD0000F261E400023042B07D801249C403000E0
:104BE0002040844201D00133F5E7032B20D81F1D5C
:104BF000002006E0061D44002418A4008E5D165512
:104C000001300328F6D96A69C95D11605B001D3364
:104C1000180005E00020002802D06B690A5C1A60C9
:104C2000002806D000236A6913716A69537103E092
:104C300000206B69FF221A71F0BD70B500220024BC
:104C40000FE023001C33C65C53009B189B00CB185D
:104C50000125B5405D6025001D35455D1D700234A0
:104C60000132032AEDD970BD10B5013B9C180855DF
:104C7000000A002BF9D110BD10B50400002300205C
:104C80008B4204D20002E25C10430133F8E710BD0E
:104C900030B587B004001D004B062AD41648CB0758
:104CA00025D58B0710D5D368002B0DD01A7919782C
:104CB0000A9B0493012303930295FE33019300237F
:104CC00000932000FFF7A4F90B4B984201D0002875
:104CD0000DD10A9B0493012303930295FE330193A4
:104CE000002300930022B7212000FFF791F907B0BD
:104CF00030BD0020D3E7C0468000B20030B587B099
:104D000004000800150019000C9B04930023039372
:104D1000029001930B9B00930A9B00222000FFF757
:104D200077F9002801D007B030BD0C9B0093002319
:104D3000012229002000FFF739FBF4E7F0B5DE4639
:104D400057464E464546E0B589B005900D00904661
:104D50009B4612AB1B789A46002306935D4E0024B7
:104D600000273000139B99462DE0032000E004202B
:104D7000002108E00020FBE72218521AAA18D67872
:104D800006AA565401318842F6D84A46029201904A
:104D900006AA0092172202A98C4662445146059841
:104DA000FFF7ACFF00280BD17F00FFB2172302AA48
:104DB000944663441B78049E1E40731E9E413743F5
:104DC0000834444531D82B5D9B0716D4631CEB5C3B
:104DD000E21CAA5C0492172202A98C4662440021BC
:104DE00011702A1992789209012ABED0022ABED0E7
:104DF000002ABFD05A461068BAE70600002E16D027
:104E0000002E5CD12B199B780133DBB204935A46F8
:104E1000D364012B5BD93700B246002305961E00F0
:104E2000A8462500149B994617E02B4EE6E742461C
:104E30002B195B78BB42E3D02B199B7802339B0084
:104E4000E418A242F4D2244EDAE7E3605168380055
:104E500001F03EFA60600136F6B2049B9E422DD20C
:104E6000BA440435434658195B5D0F2119400122AD
:104E70000023114207D15200D2B20133DBB2042B1E
:104E8000F7D9154A059207683F0A01373F02B20079
:104E90005946096D8C58524622605A00D3189B001F
:104EA0004A46D2184946CB5CA36093682361536895
:104EB000BB42CAD9E76001236360CCE7059E30009E
:104EC00009B0F0BCBB46B246A946A046F0BD014EB3
:104ED000F5E7C0460600B2000700B200F0B587B0A3
:104EE00007000E0010000E9D0A7909780495002431
:104EF0000394029373790193032300930300380012
:104F0000FFF786F8041E02D0200007B0F0BD31691B
:104F10003800FFF73DFB041EF6D1337D01950022DA
:104F200000920C9A0D993800FFF70CFA041EEBD191
:104F30006E6A030000E00A4BAA69032A0ED0084AF1
:104F4000934209D0331EF7D0012001F06BF9013EE6
:104F5000002EF0D02300EFE71C00D5E71C00D3E7BC
:104F60000200B20010B586B00B0014008A69D16847
:104F700000290ED00A7909780494012403941B783F
:104F80000293FF23019300230093FFF741F806B03B
:104F900010BD0148FBE7C0468000B20030B587B0C5
:104FA00004000800150019000A9B049300230393D2
:104FB00002780292FF220192009300222000FFF764
:104FC00027F8002801D007B030BD0A9B00930023CA
:104FD000012229002000FFF7E9F9F4E710B584B0B9
:104FE0000F236B4401241C708C69A36A002B0DD025
:104FF0001B7800920F226A44FFF7D0FF002805D1EA
:10500000A36B0F226A4411780B4013700F236B447B
:105010001878431E9841C0B204B010BDF0B583B0FB
:105020000191002808D08669736893421ED9376DB4
:10503000002F03D0002004E001BEF4E70C4813E089
:105040000130F36C83420ED98300FC582568E36875
:1050500061684B435B19AA42F2D39A42F0D2019B9A
:105060001C60002000E0024803B0F0BD0148FBE7EF
:105070000600B2000400B200F0B58BB006900C0040
:1050800015000793002928D0002D30D0A669776934
:105090000023099331682800FFF7EEFD020009A9FB
:1050A0002000FFF7BBFF002F1BD03A79FF2A1AD050
:1050B000104B984219D0002811D1099B197A079BEF
:1050C000049301230393237802930192336800939E
:1050D0002B000698FEF79CFF0AE001BED4E7397862
:1050E000EDE7054804E0044802E0034800E0014819
:1050F0000BB0F0BD0400B2008000B200F0B5DE4697
:1051000057464E464546E0B5C9B080460F1E91460B
:105110009A4619D02EAAAA4B1988118099789170B5
:105120002DAA19881180997891702CAA198811805C
:105130009B7893707B6B9B460024632C06D82FAD25
:1051400000262E550134F8E701BEE3E752464946F2
:105150004046FEF727FF5B46002B13D0529B02937D
:105160002FAB0193382300934B462EAA5946404655
:10517000FFF7B4FE041E06D12FAB9B79062B02D994
:10518000904C07E08F4C002C04D12FAB1B78532B95
:1051900008D08C4C200049B0F0BCBB46B246A946B2
:1051A000A046F0BD2FAB5B78462B01D0854CF1E7D4
:1051B0002FAB9B78442B01D0824CEBE72FABDB78F5
:1051C000502B01D07F4CE5E72FAB5B79012B01D051
:1051D0007C4CDFE7049404AB2DAA2FA97A48FFF793
:1051E000AFFA059405AB2CAA2FA97848FFF7A8FAC7
:1051F000774B984200D19FE000230693FF2006AB37
:105200002EAA2FA90002FFF79BFA041EC2D1BB6889
:10521000002B00D194E0FB68002B00D192E03B69A9
:10522000002B00D190E07B69002B00D18EE0FB6960
:10523000002B00D18CE03B6A002B00D18AE0BB6AD6
:10524000002B00D188E0529B02932FAD0195069B65
:1052500000934B462EAA59464046FFF73FFE0400F6
:1052600020A92800FFF7E9FC2800FFF781FA386041
:105270002800FFF78FFA78602800FFF755FB786267
:10528000F868FFF7D2FB3869FFF7D4FB0123BB6353
:10529000B86AFFF741FC29003800FFF743FCF869C2
:1052A000FFF77EFC2800FFF788FB78642800FFF7F3
:1052B000ABFBB864BE68320051462800FFF7E4FA41
:1052C00005003B68042B49D0386AFFF7B8FB20AAD9
:1052D0002FA93800FFF769FC002809D0431E2FA929
:1052E000CA5C01239340BB6120AAFFF723FB38640B
:1052F0003B6D002B00D14DE7529B02932FAB0193E6
:10530000059B00934B462CAA59464046FFF7E6FD05
:10531000041E00D03EE720AB0293529B01934B4604
:1053200000933B00059A2FA94046FFF707FD294B44
:10533000984241D004002DE70023FB643B655BE706
:1053400001BE68E701BE6AE701BE6CE701BE6EE719
:1053500001BE70E701BE72E701BE74E72FAA3833C1
:10536000D15C529B00934B463A004046FFF790FCBD
:10537000041E03D0002C0FD00120AFE7529B0293F4
:1053800007AB0193049B00934B462DAA5946404618
:10539000FFF7A4FD0400EDE73200290007A8FFF79E
:1053A000A1FA3A6A290007A8FFF77BFB20AA07A900
:1053B0003800FFF7FAFB8FE70023FB643B65E9E663
:1053C00088C400100500B20084FF000081FF0000C7
:1053D0008000B2000600B200F0B5DE4657464E46E9
:1053E0004546E0B583B0061E904600D1ACE00029EA
:1053F00000D1B1E04F68002F00D1AFE0002A00D10A
:10540000AEE00B689946002B03D0002500239A4696
:105410005DE0544899E001BE70E0524807E0082B77
:1054200004D198231B019B46B3440CE04D485346DE
:10543000002B00D189E0B2200004184385E08023CE
:105440001B019B46B3445B46002B00D17AE01B68EE
:10545000454A1340227A1204C02189020A401343AC
:105460005A46136063680422100018401A4257D14C
:10547000A3691B68013B032B00D901BE002825D17D
:1054800063689B0722D52169E06800F0A7FF002927
:1054900000D001BE236980225202934202D35A1ED9
:1054A0001A4200D001BE21005846FFF799F80223A6
:1054B000FF3362681340227A1204C02189020A4035
:1054C00013438022120613435A4613600135A9453F
:1054D00036D9AB00FC58002CF8D02278531EDBB232
:1054E000012B04D9042A02D0082A00D001BE237A55
:1054F000032B00D901BEA369002B8CD02378042B89
:1055000009D08CD8012B9AD0022B86D188231B017D
:105510009B46B34497E790231B019B46B34492E715
:10552000237A2278A169404600903000FFF7E6FD1B
:1055300000289DD00823AB4052461A43924697E775
:10554000002074E7074872E7064803B0F0BCBB468A
:10555000B246A946A046F0BD0248F6E70148F4E786
:105560000048F2E70400B200FFFFFCFFF8B5CE46AA
:10557000474680B5070088461500994696081B4B9C
:105580009A4203D8002E1FD101261DE0184E1BE0C1
:10559000002507E084420CD9241A80B200F042FEB4
:1055A000002C08D0200080235B029C42F2D31148DB
:1055B000F0E70024F1E74A4641463800FFF70EFDC8
:1055C000002809D0002D07D02C00B54200D93400A6
:1055D000A542DDD92D1BE5E7002804D12000C0BC81
:1055E000B946B046F8BD044CF8E7C04603093D0093
:1055F00040420F00FFFF00000200B200F0B5DE469F
:1056000057464E464546E0B589B082460F00904663
:105610009946129C139B9B460023079300290BD0AD
:105620004B46002B0AD0BA69956843461B1952684D
:10563000934205D82D4825E001BEF1E701BEF2E70F
:105640002A4809B0F0BCBB46B246A946A046F0BD08
:105650002A7BC9B25B4604930023039338780290F7
:10566000FF20019000935046FEF7D2FC002802D1A3
:10567000296900292CD100282ED00028E1D1A41BB3
:10568000B044B144002CDCD0260080235B029C4255
:1056900000D91E00BB691B68002207A94046FFF71E
:1056A000E3FABB692A7929785846049000200390D0
:1056B00038780290687901901B68009307AB5046D8
:1056C000FEF7A6FC0028D1D1A9684B1CCED0BFE7BD
:1056D0005046FEF75DFFCEE72B7D5A460092320022
:1056E00049465046FEF762FEC7E7C0460400B200D6
:1056F000F0B5DE4657464E464546E0B589B082468F
:105700000F0016009846129D00230793002910D021
:105710004346002B0FD0BA69536A9946136A9B46D9
:1057200073195268934208D83F483B004F46994648
:1057300018E001BEECE701BEEDE73B4809B0F0BC64
:10574000BB46B246A946A046F0BD2C00139A494676
:105750005046FFF707FC00280FD00028EED1A044E8
:1057600036192D1B002DE9D03900300000F036FE2F
:105770006B18BB42E9D37C1AE8E74B469B691B6870
:10578000002207A93000FFF76FFA4B469B695A4683
:1057900012795946097813980490002003904846DE
:1057A000007802905846407901901B68009307AB3F
:1057B0005046FEF72DFC002803D15B4699684B1C30
:1057C00012D1002803D15B46196900291DD1002898
:1057D0001FD00028C1D14B469B699A6C139B494648
:1057E0005046FFF7C3FEB8E75B461A7BC9B2139B6E
:1057F000049300230393484600780290FF20019011
:1058000000935046FEF704FCDBE75046FEF7C0FE6F
:10581000DDE75B461B7D139A00922200414650460D
:10582000FEF77AFCD5E7C0460400B200F0B5DE46CC
:1058300057464E464546E0B587B007000E001500B6
:105840000093109A9046EB18013B019300230593B7
:105850000493002948D0B3699B469B699A465B46EE
:105860001B6C02935B465B68019A93423ED800230F
:1058700099460393504C504B9C4200D194E04B46C8
:10588000E81A514600F0AAFD002900D08BE0039BE6
:10589000019A934244D8484B9C4200D184E0019B3A
:1058A0004A46981A0130514600F098FD002943D12C
:1058B000009B002B78D02A0004A93000FFF7AEFB34
:1058C000041E6AD1049A13690293D3689A46116838
:1058D0005368524653435B18013B9946019B4B4525
:1058E0002ED2019B99462BE001BEB4E72A0004A901
:1058F0003000FFF793FB041E0ED1049B1A689146FB
:10590000DA6892465B6853434B44013B0393009B28
:105910009A45B0D9284CAEE7002399460393F6E7A1
:1059200004A93000FFF77AFB041EB4D1049B1A6867
:105930009146DB689A46AEE71F4C35E0002CB7D1A4
:105940004D45B5D2424631003800FFF70BFB041E2F
:10595000F4D15B461B68002205A92800FFF784F9F3
:10596000434605AA31003800FFF786FB041EE5D147
:10597000029B5A01D21A92009C466244D2004346CE
:1059800031003800FFF7F2FD009B534508D955441C
:1059900052469B1A00930400D0E7019B9946CFE73B
:1059A0000094040084E7044C200007B0F0BCBB4620
:1059B000B246A946A046F0BD0400B20010B50028CA
:1059C00014D107292ED8FF2A2ED81A4B18688368BD
:1059D0007824005B1B188900C9180B68164803401F
:1059E0001206120C1A430A60002002E0012801D0BE
:1059F000124810BD0F2919D880235B029A4217D292
:105A00000C4B186883687A24005B1B188900C9183E
:105A10000B680B48034012020A4802401A430A600E
:105A20000020E6E70548E4E70448E2E70348E0E74A
:105A30000248DEE7B8FC0008FF00FFFF01004A0053
:105A4000FF0000FF00FFFF0030B51A4B1B68422427
:105A50001C5D844228D9032928D8002901D1072AAE
:105A60000FD9012905D0022906D0032907D01248F1
:105A70001BE00F2A05D9F6E7032A02D9F5E7002A29
:105A800016D175241D5DA940723CAC4021407424A0
:105A90001C5D22409B680A43C02189008C466044FB
:105AA0008000C250002000E0034830BD0248FCE7FF
:105AB0000148FAE7B8FC000801004A00F0B50328E5
:105AC00035D8002801D107290FD9012805D002288F
:105AD00006D0032807D0184828E00F2905D9F6E793
